:1000000000580020D904000019050000190500005F
:1000100000000000000000000000000000000000E0
:1000200000000000000000000000000019050000B2
:100030000000000000000000190500001905000084
:100040001905000019050000190500001905000038
:100050001905000019050000190500001905000028
:100060001905000019050000190500001905000018
:100070001905000019050000190500001905000008
:1000800019050000190500001905000019050000F8
:1000900019050000190500001905000019050000E8
:1000A00019050000190500001905000019050000D8
:1000B00019050000190500001905000019050000C8
:10040000FFFFFFFFFFFFFFFFFFFFFFFFFE7FFFFF7D
:1004100010B5064C2378002B07D1054B002B02D0DA
:10042000044800E000BF0123237010BDC03000204D
:1004300000000000F8340000044B10B5002B03D07E
:100440000349044800E000BF10BDC04600000000A2
:10045000C4300020F8340000402292029A1A9246DA
:100460007047C046174B002B00D1134B9D46FFF73A
:10047000F3FF00218B460F461348144A121A02F06C
:100480002DFC0E4B002B00D098470D4B002B00D0BD
:1004900098470020002104000D000D48002802D0DC
:1004A0000C4802F0F7FC02F0F7FB2000290002F0F4
:1004B00079FD02F0E1FBC0460000080000000000EA
:1004C0000000000000580020C03000203031002023
:1004D000952E0000A52E000072B60B490A4A0A4B61
:1004E000094C094D084E084FB846B946BA46BB46B6
:1004F000BC4606488546064880470648804762B69F
:1005000002F050FDFEE7000000000000005800204F
:10051000F528000059280000DEE7C04630B5050088
:1005200083B0002945D0C0232A4C9B00E25802200A
:10053000920134D4E25828480240E2508022D2048A
:10054000E250002D33D0E0228B78D2001B02134002
:100550000722487802401343C1229200A35003238C
:100560000A781340C2229200A3504A798B79002A5C
:1005700028D10921194A002B00D10A00C02180206E
:10058000144B89005A505A58400402421DD114227B
:100590005C58013A044204D1002AF9D1032003B087
:1005A00030BDC221890003205B58002AF7D000200B
:1005B000F5E76A46012353719370FF3391711380FD
:1005C0006946B0E70121064AD5E7C2229200002021
:1005D0009B58E4E700400640FFFF7FFF09008000D2
:1005E0000100800070B5050084B0002954D080243B
:1005F0003E4A6400135902209B01DE0F002B3CDBB6
:1006000013593B480340135180233A48DB041351EC
:100610000660002D3ED0E0254B7AED001B022B40FA
:1006200007250E7A35402B4382256D005351302328
:10063000CD798E792D012B400825F60035402B43CE
:1006400004254E79B60035402B4384256D00535167
:100650000B79012B3CD0022B31D0002B28D00B681A
:100660000360002B0BD18022204952008B58224B73
:10067000013B8858002BFBD1032004B070BD8020C3
:1006800080211D4B194C4000490422580A4228D0B1
:10069000002BF1D00020F0E76B461973174B6A4628
:1006A0000093174B694601930223FF3313819EE7A2
:1006B0000B7B5D1EAB41DB0501331351CFE70B7B99
:1006C0005D1EAB410F4DDB05AC4663441351C6E7DD
:1006D0000B7B5D1EAB410C4DDB05AC4663441351F7
:1006E000BDE7002BC8D0013BCFE7C0460040064025
:1006F000FFFF7FFFE030002088E7300000127A0023
:10070000000100020100030001000100F0B5060035
:1007100083B000294CD00124802527002C4AAD004D
:10072000535902205B0E1F401C4207D153592948E0
:10073000034053515751002E02D1002003B0F0BDA9
:10074000E0208B78C0001B02034007204D78284032
:1007500003438120800013500B781C4082239B00B0
:10076000D4500B7948798A79002B2DD1012105339A
:10077000002800D10B00002A02D08022120413436B
:10078000802080248226124980000B50012564239A
:100790006404B60002E0002B08D0013B0A58224254
:1007A000F9D08A591542F6D0002BC6D10320C5E7EF
:1007B00080236A465B009380012393700223FF33FA
:1007C000917113806946A6E707230321D0E7C0464D
:1007D00000400640FFFF7FFF284A70B51369040000
:1007E0001B011B0F022B16D0032B39D00020012B2D
:1007F0002BD00F26214D2969090C3140013102F01F
:10080000C5F8012C1AD0022C04D1296931400131DC
:1008100002F0BCF870BD80239B00D15880230800F3
:100820005B0418401942E4D082239B00D358012274
:10083000100018401A42DCD01148DAE7296909098A
:100840003140013102F0A2F8E4E7FF33D2588023AF
:1008500010005B0418401A42CBD00A4B1868C8E756
:10086000C0239B00D158802308005B041840194224
:10087000BFD0C2239B00D3580348BAE700400640CC
:1008800000127A00E0300020006CDC02F0B5574620
:100890004E464546DE46E0B50B788E785C1C721CF1
:1008A000544383B04F7801949C46CB787D1C5543CC
:1008B000022B6DD0032B4CD0012B0CD0012800D182
:1008C00097E0022830D0002003B0F0BCBB46B2460F
:1008D000A946A046F0BD50498846802144464900BB
:1008E0006158C90161D54D4909680909012866D0D7
:1008F0000228E8D14A4C5800A046C0188000804425
:100900004046406D0009424301208A42DCD3424602
:10091000926D120955438D42D6D34246D26D019C49
:10092000120954438C42CFD3F022360412031640EE
:100930003A01FF2717403E4362460F271740F02237
:100940001B06120513403E43334A33430020936194
:10095000BAE7C0243049A4000C59E4012AD4012884
:10096000AFD19A463304F026360333403E01FF27C9
:10097000624637400F26F021164052463B4312068E
:1009800009050A4033431343234A002053619BE780
:1009900080242149A4000C59E401E0D58224A4005C
:1009A0000959C907DBD51F49A0E7012800D088E70E
:1009B0000123D6E7C224A40009591B4996E7184829
:1009C0009A46834658008146C018800080465846A3
:1009D000444600590009424301208A4200D273E78D
:1009E00042465A445268120955438D4200D26BE781
:1009F00005E00B4A9A4693465A00002191464B4423
:100A00009B005B449B68019A1B095A4301208A4260
:100A100000D259E7A6E7C04600400640E03000207B
:100A20000433000020A10700C0C62D00254A10B5E0
:100A300013699B069B0F022B3CD0032B23D0012B69
:100A400018D08023204A5B00D258802311005B0419
:100A500019401A4201D01D4B196882231A4A5B00C3
:100A6000D3580722100018401A4202D00138C14062
:100A7000080010BD13690222100018401A42F8D075
:100A8000FA20C001F5E7C0230F499B00CA58802314
:100A900014005B041C401A420FD1C1230A4A9B0078
:100AA000D3580722100018401A42E2D00138C4403F
:100AB0002000DEE7054B5868DBE7C2239B00CB58DC
:100AC000034CEAE70080044000400640E03000208C
:100AD000006CDC02F0B5DE4657464E464546AD4A50
:100AE000E0B55169FF22030083B00A40042A00D117
:100AF000B1E0802A58D0012A00D1CFE01A78867858
:100B0000551C701C5F7845437C1C444301959446FA
:100B1000DA78A346022A00D122E1032A00D119E1A2
:100B2000012A00D114E10F239B490869000E1840E7
:100B3000824200D116E10869000E1840904200D1AF
:100B400010E10869000E1840904200D10AE10869DE
:100B5000000E1840904200D104E10869000E1840D0
:100B6000824200D1FEE00869000E1840824200D1A6
:100B7000F8E00869000E1840824200D1F2E00869EE
:100B8000000E1840824200D1ECE00869000E0340DC
:100B90009A4200D1E6E003200B6903B0F0BCBB46EB
:100BA000B246A946A046F0BD1A788678551C701C3E
:100BB0005F7845437C1C444301959446DA78A3460C
:100BC000022A5DD0032A00D1ABE00321012AAAD179
:100BD000714A9046802245465200AA58D20100D45C
:100BE00094E06E4A1268120990460122012900D150
:100BF000BAE0022997D16A4D5100A94689188900A7
:100C000089444946496D0909414301204145C4D3FE
:100C100049465C46896D09094C434445BDD3494664
:100C2000C96D019D09094D434545B6D3F021120612
:100C300009050A40F021360409030E403901FF2757
:100C400060460F400F21324301403A430A43524964
:100C50008A61DA7867E786781A78701C551C5F78A5
:100C600045437C1C44430195D978A3469446022908
:100C700007D003296AD00A000129D7D10221A7E7AA
:100C800003218025444AAD005559ED0140D402228C
:100C9000012926D0022900D045E7C7E786781A78CF
:100CA000701C551C5F7845437C1C44430195D978E2
:100CB000A3469446022951D003294DD0012987D05B
:100CC0000A000021884636498A4651008918890061
:100CD00051448968019D09094D430120454500D2D1
:100CE0005BE7F021120609050A40F02136040903EA
:100CF0000E403901FF2760460F400F21324301406B
:100D00003A430A4324494A61DA780CE70122BFE7F3
:100D10008225AD005259D207B9D5224A9046022207
:100D200064E703211C4A9046C02245469200AA5817
:100D300091464D460322ED01AAD5C225AD00A94634
:100D400045464C462C59184CA0464FE70221E9E78E
:100D500004213DE70421E5E70121E3E7012190E7D4
:100D600004218EE7002018E70D498A4655465100B8
:100D7000891889006D582D0945430120454500D249
:100D80000BE75C465144496809094C43444500D28D
:100D900003E79AE700E0074000400640E03000200B
:100DA0000433000020A10700C0C62D00C02210B5EA
:100DB0001E4B92009A58040082B00120D2012AD41E
:100DC00080231A4A5B00D358DB0103D5184B1B68FC
:100DD000002B0CD18022154B92009A58D20104D5D9
:100DE000822292009B58DB070BD402B010BD012C6D
:100DF000F0D00028EED00F4B01A80193FFF76AFE58
:100E0000E8E7022CF1D00028EFD00B4B01A80193AA
:100E1000FFF760FEE9E7C22292009B58032CCFD077
:100E2000064B01A80193FFF755FEC9E700400640B5
:100E3000E030002001010001010000020301000375
:100E4000584A70B5944601260F22574B4000C35AAA
:100E50000D009B0063441C6819682409002034407D
:100E60000A40A2420CD31968890F0E4208D01B68B1
:100E70005B015B0F022B30D0032B17D0012B00D06E
:100E800070BD4A49012D7CD180235B00C858802168
:100E9000030049040B40084201D0454B1B688221E6
:100EA0004248490040584005400F31E0012D53D1E0
:100EB000C0233E4D9B00E8588021030049040B40AD
:100EC000084203D0C2239B00EB583A4BC12137485C
:100ED000890040584005400F1AE0012D23D080239F
:100EE000324D9B00E8588021030049040B40084222
:100EF00007D082239B00E95833000B400E4200D0FC
:100F00002D4B8121294889004058FE39FF3908407E
:100F10000028B5D00138C340511C180001F036FD3F
:100F200001346043ACE78023204E9B00F0588021C1
:100F3000030049040B40084207D082239B00F1586C
:100F40002B000B400D4200D01B4B8121174889001C
:100F500040584005400FDBE7C023144D9B00E85884
:100F60008021030049040B40084203D0C2239B00A8
:100F7000EB58104BC1210D4889004058072108400B
:100F8000C6E7FF33C8588021030049040B400842DC
:100F900001D0074B1B688221044849004058FD39A5
:100FA0000840B5E7005006402C34000000400640E1
:100FB000E0300020006CDC0200127A000F22404B6F
:100FC00070B5186A000E1040022822D00FD80028F1
:100FD00032D001281BD1802252009A588023100061
:100FE0005B0418401A4201D0364B186870BD0328C4
:100FF0000DD1C0229200995880220800520410405E
:101000001142F3D0C22292009B582F48EEE70020F5
:10101000ECE7802292009958802208005204104088
:101020001142E3D0822292009B5801221000184006
:101030001A42DBD02548D9E71969090E0A40022A6D
:101040002AD0032A1AD0012A0DD00F241C4D296959
:10105000090C2140013101F099FC2969214001313D
:1010600001F094FCC2E7FF329A58802310005B0421
:1010700018401A42E9D0134B1868E6E7C0229200E4
:10108000995880220800520410401142DDD0C2223B
:1010900092009B580C48D8E78022920099588022F1
:1010A0000800520410401142CFD0822292009B5877
:1010B0000122100018401A42C7D00448C5E7C046B4
:1010C00000400640E0300020006CDC0200127A0094
:1010D000474B10B55B681B061B0F0E2B03D8454A08
:1010E0009B00D3589F460020414B59684905490F42
:1010F000013101F04BFC10BDFFF798FCF4E7FFF75E
:101100005DFFF1E780233C4A5B00D2588023110049
:101110005B0419401A4201D0384B19688223364AC1
:101120005B00D0584005400FDED00138C1400800B8
:10113000DAE7802330499B00CA58802314005B04FF
:101140001C401A4207D00122822314009B00CB5876
:101150001C401A4238D18123274A0FE0C023264978
:101160009B00CA58802314005B041C401A4203D021
:10117000C2239B00CB58224CC1231F4A9B00D0584E
:101180004005400FB0D00138C4402000ACE701203A
:10119000FFF722FBA8E70020FFF71EFBA4E7144A95
:1011A00013691B079B0F022B1AD0032B0ED05A1E5C
:1011B00093415842134B1840FA235B029C4660440B
:1011C00092E7FA2040028FE70F4CC4E7136902222E
:1011D000100018401A4200D186E7FA20C00183E7C8
:1011E000180012691040134200D17DE7F5E7C046B0
:1011F00000800440B430000000400640E030002091
:10120000006CDC02000CFEFF00127A00F0B5DE4636
:1012100057464E464546E0B50400A3B0002800D12D
:1012200090E1BB4A13691B011B0F032B1BD0C0238A
:101230009B00D358DB0100D5C3E100210120FFF75B
:101240006DF9061E07D1B34B03AD28000393FFF7DA
:1012500041FC061E07D0300023B0F0BCBB46B246AE
:10126000A946A046F0BD2100E078FFF74FFA061E20
:1012700000D1AAE1A84B5A69FF231340012B00D1EA
:10128000C7E1042BE7D127003A37002EE3D1FB78E2
:10129000032B00D0AAE1637F002B00D0CFE1E378DD
:1012A0000136002BD7D003AD9C4B28000393FFF7EA
:1012B00011FC0600002ECED1A07BE11DFFF72EF918
:1012C000061EC8D1FB782800EB70BB78AB707B782A
:1012D0006B703B782B70FFF7FDFB0600002EBAD138
:1012E0003023E35C002B02D08D4BE26A5A60352339
:1012F000E35C002B0BD086498A4A0B6AF0201A4027
:101300003423E35C00051B06034013430B624323B5
:10131000E35C002B00D07FE1236F002B33D0E26E23
:10132000002A30D0900080187F4A181892467F4AD1
:10133000914610229046E022D20494468022D205A3
:10134000019251461A784D465200895A784A8900CE
:10135000934659440A6867462A400A604246DD7847
:101360002D0115409A7812063A400F272A431D791D
:101370003D402A435D78002D01D0019D2A4305336D
:101380000A608342DDD14423E25C23004433002A17
:101390001AD09A78674D94466F68674AD978174093
:1013A0005A780902501E8241D202904662461201CA
:1013B0009446FF2260460240E020C00001400A43FC
:1013C00041463A430A436A601A79002A1BD03F21FA
:1013D0009A79584D94462A69187A8A43D9791043E4
:1013E0004A1E91414A0090466246920094460C2261
:1013F00061460A400243302041465F793F01384050
:1014000002430A432A611A7F002A2FD00120494A49
:10141000116C81430800597F014311640221126C51
:10142000987F8A43002800D00A4342490A640A6C24
:101430000421D87F8A43002800D00A433D49200078
:101440000A640A6C0821643000788A43002800D0BE
:101450000A43384920000A640A6C1021653000787C
:101460008A43002800D00A4332490A641B7B002BC0
:1014700006D02B4B626D9A60A26DDA60E26D1A6144
:10148000230066331B78002B23D00020294A2B49E8
:10149000936E9066536880251940230068331B784B
:1014A0006D011B032B400B43536023009066673391
:1014B0001B78002B0DD02300693319780E234900C7
:1014C0000B4021006A3109780B43802149050B4309
:1014D00093667423E35C002B00D1BCE67F230120DC
:1014E000174974348A78134062784240D20113431A
:1014F000DBB28B700223E356002B01DA20335BB2A0
:101500001F200F4903400A79824313430B71A2E65F
:10151000004006400301000300E007400100000214
:10152000E0300020FFFFFFF02C340000FFFFFFBF82
:1015300000500640008004400FF0FFFFFFEFFFFF68
:1015400000D00740802604AB760005969E83434E6C
:1015500001221E61424E0125099628269A55013E18
:101560009C55C02636030C963E4E9D7311963E4EFA
:101570009D8112963D4E15953D4D9E873D4E16958B
:101580004C251E67302743265A550435DA559A559F
:101590005A55802252041E92022117223648FF31EA
:1015A000DA665D3219941A941B94DC6204901981F6
:1015B000198399841C901D90995202329C541C00EE
:1015C0002FE6C2239B00D3583DE62100607F1031F7
:1015D000FFF708F8294B06005A69FF231340012B37
:1015E00017D00027042B00D04FE64CE603A8C370A9
:1015F000BB7883707B7843703B780370FFF76AFA9F
:10160000061E00D027E6A07BE11DFEF787FF06003F
:1016100064E62700363738E6210001203631FFF72F
:1016200035F9002801D0060015E6210002303A31D4
:10163000FFF72CF9002800D16EE606000BE6104BF0
:1016400003AD28000393FFF745FAE3780600002B6B
:1016500000D12FE6012800D02CE625E600127A0002
:101660000001000203010101000303000102000068
:10167000010000015C0100200101010100E00740C0
:101680000101000170B504000E0011281CD92128A9
:1016900011D9042544280CD80300223BDBB2182BB7
:1016A00019D8C34A0020DA40D30717D5002E00D03E
:1016B0003060280070BD153CE4B20C2C00D9B4E1B8
:1016C000BC4BA4001B599F460F2800D9ADE1BA4B73
:1016D00084001B599F46442800D1B5E1B74B6200F6
:1016E000D35AB74A9B009B585B0021D52822B54BA3
:1016F0001B199D5CAB0616D46B061DD46BB2002B78
:1017000000DAABE118232B4200D11CE12B0700D5F6
:101710009CE1EB060CD501212000FFF791FB45422F
:1017200045412D02C2E70120FFF756F80028E9D114
:10173000002080256D00B9E70020FFF74DF8002854
:10174000E0D1F5E7A04B00255A68802310001B016B
:1017500018401A42AAD0FFF7BBFCA7E780239B4A98
:101760005B00D258802311005B0419401A4201D05B
:10177000974B19688223954A5B00D0580025400595
:10178000400F00D192E70138C14008008EE7C02326
:101790008E499B00CA58802314005B041C401A42E7
:1017A00003D0C2239B00CB588A4CC123874A9B009D
:1017B000D05800254005400F00D177E70138C440DC
:1017C000200073E78023814A5B00D25880231100F8
:1017D0005B0419401A4201D07D4B196882237B4A71
:1017E0005B00D35807221000002518401A4200D190
:1017F0005CE7C8E7FFF7E2FB002557E78023734962
:101800009B00CA58802314005B041C401A4208D075
:101810000122822314009B00CB581C401A4200D0A6
:101820006D4C8123694A9B00D35807221000002584
:1018300018401A4200D139E7C0E7802363499B0072
:10184000CA58802314005B041C401A4208D00122AD
:10185000822314009B00CB581C401A4200D05E4CDF
:1018600081235A4AA3E7C02358499B00CA588023C2
:1018700014005B041C401A4203D0C2239B00CB58C7
:10188000544CC123514ACEE70020FEF7A5FF0025A6
:101890000CE70120FEF7A0FF002507E70220FEF776
:1018A0009BFF002502E7802348499B00CA588023FC
:1018B00010005B04002518401A4200D1F6E6012210
:1018C000822310009B00CB5818401A4200D1EDE64D
:1018D0004148EBE6C0233D499B00CA5880231000D5
:1018E0005B04002518401A4200D1DFE6C2239B00AA
:1018F000CB583848DAE68023344A5B00D25880233C
:1019000010005B04002518401A4200D1CEE6304B8F
:101910001868CBE62E4B00255868C7E62A4B0020F6
:101920001B6C9B0700D404E70025BFE6264B002074
:101930001B6CDB0700D4FCE60025B7E6274B9B7841
:10194000DB09012B74D100200025AFE6234B9B78E7
:10195000DB09012BF7D01C4B1B69DB07F3D5FA2001
:1019600000258000A2E6184BDB689B019B0F032B30
:10197000E9D0174A9B00D3180025986896E6124BC9
:10198000DB681B019B0F032BF3D10020DCE7134B1B
:101990009B78DB09012BD6D0FA200025400285E692
:1019A000094B00201B6CDB0600D4C2E600257DE657
:1019B00001002901F0300000243100002C34000027
:1019C0000050064084330000008004400040064080
:1019D000E0300020006CDC0200127A0000D00740EA
:1019E000274B00201B6C1B0700D4A2E600255DE6F8
:1019F000234B00201B6C5B0700D49AE6002555E6BC
:101A0000FFF714F8002551E61E4B9B78DB09012BEC
:101A100099D01B4B1B6902221000002518401A4266
:101A200000D143E6FA20C00140E6002004253DE64F
:101A3000134A13691B079B0F022B18D0032B14D0DA
:101A4000002BA9D000207FE700202FE600212000F6
:101A5000FFF7F6F9EB0600D461E65CE60220FEF73C
:101A6000BBFE002800D04DE662E61369D3E71800FC
:101A7000126900251040134200D117E6D2E7C04694
:101A80000080044000D00740F0B583B0002900D1A9
:101A90006CE00E7828234E4C2218D35CDA072DD444
:101AA000182200271A4204D04A78043AD2B2022AF5
:101AB0002CD900255A0701D58D88013D00249B07AC
:101AC00001D54C88013C434A434B94464000C35ADD
:101AD000424A9B006344196811401960002E0BD0E4
:101AE0000F2110220D408021240122403F063A435D
:101AF0002A43C9050A431A6003B0F0BD1D38C0B2BD
:101B00000428F9D8364B80001B589F469200A21833
:101B10000025176F5A07D1D5CEE70222314B1B6C37
:101B20009343002E00D013432E4A1364E4E70422AB
:101B30002C4B1B6C9343002EF6D01343F4E7082282
:101B4000284B1B6C9343002EEED01343ECE710227E
:101B5000244B1B6C9343002EE6D01343E4E7012192
:101B6000204A136C8B431E431664C5E76A46012363
:101B7000802113701C4A89005158C90104D5822163
:101B800089005258134220D1C022174B9200995815
:101B900080225204114213D1802149005958462312
:101BA000114205D0114B1B685A4253419B01063329
:101BB0006A4653700123012669465380938069E782
:101BC000C22292009B580523F2E70423F0E7C046A7
:101BD00084330000005006402C340000FFFFFFBF9C
:101BE000643100000080044000400640E0300020E6
:101BF000F0B5D6464F464646A54BC0B55A69FF23B9
:101C000082B01340042B00D192E0802B00D18DE0F4
:101C1000013B5A1E934103225B42134001331C00D7
:101C2000002804D002680424013A032A3AD9002982
:101C30003ED008780438C0B2022830D8954A155CE6
:101C400001A8C5704D8855192D7985708D88551955
:101C50002D794570C9885218127902709C4262D061
:101C6000857807786A1C46787B1C5343711C514366
:101C70009C46C3788A46022B00D1A4E0032B68D08F
:101C8000012B32D0012C00D1ECE0022C00D1BFE0BE
:101C9000002002B0E0BCBA46B146A846F0BDFF2520
:101CA0007C4ACDE77C4882187C20145C0029C0D196
:101CB000C0227A49920088588022050052041540BB
:101CC000104237D1802040000958114260D0744A38
:101CD0001268002A5CD0734A01929C4222D00223EF
:101CE00001279C469A460126012280236B485B000F
:101CF000C358DB0100D485E0694B1B681B0998467B
:101D00000123012C6CD0022CC2D15800664CC018A3
:101D100080002018416D0C096243424500D392E0D7
:101D20000120B6E701A8FEF7D5FEB2E7032376E768
:101D3000022374E7C22292008A585C4A01929C42B4
:101D4000F0D004239C46023B03279A460126012239
:101D50000025C02351489B00C358984641460323A1
:101D6000C90169D4012C00D08FE7F0221B061205AF
:101D70001340F0222D04120315403201FF262B439D
:101D800016401E430F231F40444B37435F617FE7DC
:101D90008021424A8900515801A8C90100D45DE759
:101DA0008221012689005158320001A80A400E42C2
:101DB00000D153E73E4901919C42B4D002239246A0
:101DC00000269C4601278020344B80001858C10112
:101DD00004D5822080001B58DB0753D40223C1E7BF
:101DE0005800314CC0188000215809094A43424527
:101DF00096D351462018426812095143414534D2C6
:101E0000012046E7012C41D0022C00D040E70123FD
:101E1000F0221B0612051340F0222D041203154078
:101E20003201FF262B4316401E430F231F401B4B3E
:101E3000374300209F612CE7C2239B00C3581D4BF2
:101E4000984603235DE75146826D1209514341458F
:101E500000D265E76146C26D120951434145D7D2B0
:101E6000012016E7002290460F4C61465A00D21816
:101E70009200A418A26812095143414500D374E7A7
:101E8000012006E70C4B984602233AE701236CE752
:101E900000E00740043400008433000000400640A6
:101EA000E0300020010100010433000003010003C1
:101EB00001000002C0C62D0020A10700104B1B69C5
:101EC0001B011B0F012B14D0032B15D0042303700F
:101ED0000F230B490A69120C1A40013242800A6929
:101EE00012091A40013282800A6913400133C3800B
:101EF000704706230370EBE705230370E8E7C0464D
:101F000000400640F0B5C64600B50D0086B0002979
:101F100059D08B89202B07D8002B08D0202B06D82E
:101F2000C74A9B00D3589F46402B00D199E000261A
:101F3000EC89202C29D8002C05D0202C03D8C14BAB
:101F4000A4001B599F4600242F78062840D006285D
:101F500023D804286AD0052830D10F220020BA499E
:101F600080460B691B0E1340032B00D1BDE0002DF2
:101F700000D15BE1002302A938008B714E708C7098
:101F80000B704B71FEF7CAFA47E0403C631E9C4160
:101F9000062364429C430734D6E719280ED1002F4C
:101FA00000D16CE03F21A94A13698B433C390B43B4
:101FB00013617F23A64A91780B409370002006B0EE
:101FC00080BCB846F0BD0124012601270628BED1F9
:101FD0000F2200209C4980460B691B0E1340012BE9
:101FE00054D0002D00D126E100206A6802A9029297
:101FF000087108734C720E726B788871013B5C42F9
:1020000063414B71934BD018934B984200D9E4E055
:102010000223CB713800FEF7E5FA0028CFD1434602
:10202000002BCCD001A8FEF755FDC8E70F220020F9
:10203000854980460B691B0E1340022B00D184E0BA
:10204000002D00D1EDE0022302A9FF338B80002395
:102050008B71013338004E708C700B70FEF756FB9D
:10206000DBE7CB89202B00D9B2E0002B00D19CE02C
:10207000202B00D999E0794A9B00D3589F468021B4
:10208000734A002093780B43937098E70130002F38
:1020900095D00B691B0E1A4001AB022A00D1E9E072
:1020A000032A00D1E6E0012A00D1E3E00F20664ACE
:1020B0006B4994461269120902408A18127E5A70BE
:1020C00062461269120C02408A18127E9A706246A9
:1020D0001269104009180A7E01201A70FEF766FE88
:1020E000002800D06BE7B8467BE70130002F00D115
:1020F00065E70B691B0E1A4001AB022A00D1B5E05F
:10210000032A00D1B2E0012A00D1AFE00F204E4AED
:10211000534994461269120902408A18127E5A7075
:1021200062461269120C02408A18127E9A70624648
:102130001269104009180A7E03201A70FEF736FE55
:10214000002800D03BE7B84611E70130002F00D14E
:1021500035E70B691B0E1A4001AB022A00D187E05C
:10216000032A00D184E0012A00D181E00F20364A01
:102170003B4994461269120902408A18127E5A702D
:1021800062461269120C02408A18127E9A706246E8
:102190001269104009180A7E02201A70FEF706FE26
:1021A000002800D00BE7B8464AE700240726CBE614
:1021B0000626BDE60326BBE60226B9E60126B7E6FB
:1021C0000424C1E60324BFE60224BDE60124BBE6E5
:1021D000402BEAD107240726B6E6224B9C46224B29
:1021E00062449A4200D915E70323CB7112E7042613
:1021F0009EE605269CE60524A6E60624A4E604241D
:102200000726A1E6032407269EE6022407269BE66E
:102210000124072698E60524072695E606240726C6
:1022200092E600210120FEF771FAF6E6002138005F
:10223000FEF774F9F1E600213800FEF7D3F9ECE679
:1022400078310000FC31000000400640008004406E
:1022500000D0074000F7C2FF00093D0080320000B7
:102260000434000000EE85FF0048E801DA704DE715
:10227000DA707BE7DA7019E710B5044CE2611A02F4
:102280001A43606121760020228410BDE0300020D6
:10229000F0B54F46D6464646C0B582B06B4681463D
:1022A00018715971884600F013F920236A46614D70
:1022B000EF5C0133EF54203B9371002F00D1A2E07B
:1022C00043460024002B5CD0212320269A4606E0BA
:1022D0005346EC54AF5D0134E4B2BC4212D2EA6919
:1022E000A3009B58002BF6D01A79022AF3D09968E4
:1022F00001A81B6898470028EAD10134AF5DE4B219
:10230000BC42ECD34B466A699B009858FEF77EFFAF
:102310004B4682466B76A60000284ED102236A46C1
:102320009371002F22D043462024002B64D0212318
:1023300000242026984606E04346EC54AF5D013465
:10234000E4B2BC4212D2EA69A3009B58002BF6D03B
:102350001A79012AF3D0996801A81B6898470028C8
:10236000EAD10134AF5DE4B2BC42ECD300239A461B
:1023700000F0A2F8504602B0E0BCBA46B146A8460A
:10238000F0BD20239A4605E05346EF5C0134E4B2E9
:10239000BC42B7D2EB69A6009B59002BF6D01A7944
:1023A000022AF3D0996801A81B6898470028EBD04F
:1023B0002123EC540423FF339A4600236A46937189
:1023C000EB699B59002B03D0996801A81B689847BB
:1023D000043E331DF4D1CBE71A79012A06D099685F
:1023E00001A81B68984700281AD12F5D414601318A
:1023F000CBB29846BB42B9D24346EA699B009B5890
:10240000002BE9D1F2E74B466A699B009858FEF72A
:10241000FDFE4B4682466B76002807D00026CCE7AF
:1024200021234246EA54E3339A46A1E702236A464F
:1024300093719BE7E0300020014B587E7047C04607
:10244000E03000202123054AD35C117E994203D954
:10245000D2699B00985870470020FCE7E0300020CC
:1024600010B5FFF70FF910BD10B5FEF7CFFE10BD88
:10247000044B10308000C018002A01D0036813609C
:1024800001607047000000201F22430910401E3ADF
:10249000824002499B005A507047C04600E100E06C
:1024A0001F22430910401E3A8240024920339B00FC
:1024B0005A50704700E100E0044A1368002B04DD25
:1024C000013B1360002B00D162B67047043100203D
:1024D00072B6024A1368013313607047043100205A
:1024E00070B5002816DB184A830894461822C000ED
:1024F0001040E7321600C024864089010A4082401D
:102500009B006344A4001D59B5431D511D592A4326
:102510001A5170BD0F2318400300083B032B10D93C
:102520000A4A1823C0001840E7331D00854089017E
:102530000B4083401468AC43146014682343136059
:10254000E7E7034AEDE7C04600E100E020ED00E0E8
:102550001CED00E0031E0BDB82080B49C032920029
:1025600050581822DB001340D8400006800F7047F7
:102570000F2003401A00083A032A02D9034A1068C0
:10258000EFE7034A1068ECE700E100E020ED00E02F
:102590001CED00E01F22430910401E3A8240024910
:1025A00060339B005A50704700E100E01F2243094E
:1025B00010401E3A8240024940339B005A507047F7
:1025C00000E100E04309054A40339B009B581F226D
:1025D0001040C340012018407047C04600E100E0B1
:1025E00070B5061E08D00C0000252000013500F053
:1025F00095F81834AE42F8D1002070BD012A04D0FD
:10260000022A11D0002A08D07047890040180368B8
:102610009343022213430360F6E7890040180368DE
:10262000023293430360EFE70322890040180368F6
:1026300013430360E8E7C04610B500F0D9F810BDB9
:10264000890040180368044912040B40F021090373
:102650000A401A4302607047FFFFF0FF89000858E4
:102660000003000F7047C0468022890040180368AD
:1026700052041343036070470123C0228B4010B5FE
:1026800084582343835010BD012210B5C0248A40D2
:1026900003599343035110BD01230A781340C42208
:1026A00083501F234A781340C82283507047C04686
:1026B000A023C0587047C0460122A0235242C250F6
:1026C0007047C0464069704710B501248C408A406D
:1026D0004369A3431A43426110BDC046416170473C
:1026E00010B500F093F810BD10B500F0A3F810BDC0
:1026F00010B501248C408A400368A3431A4302604A
:1027000010BDC04601607047006870474160704767
:1027100081607047C160704700697047F0B54468D8
:102720000568A100037A69180A68012B48D0022BBA
:1027300043D0002B3ED010239A431300427AE02767
:1027400012011A434023867A9A43B6013340134359
:10275000C67A244AFF00134032023A401343077BF3
:10276000214AFF0313403B43F027204A3F031A400E
:10277000437B1B043B401343827B002A02D0802210
:10278000520413430122A2400B60D343C0279C464E
:10279000C37BE959A34091430B43EB51012E00D079
:1027A000F0BD0369057D5969002D17D0012D0BD0AF
:1027B0005961F5E702339A43BDE703231A43BAE7A9
:1027C0009A4302231A43B6E7114362461D68154037
:1027D000427DA2402A431A605961E1E762461140F6
:1027E0005961DDE7FFF8FFFFFF7FFFFFFFFFF0FF0D
:1027F000890040180368044912020B40E021C90017
:102800000A401A4302607047FFF8FFFF10B5084CFA
:102810002240002B06D0012B03D18423090411434D
:10282000C15010BD802309041143C150F9E7C046CF
:102830005387FFFF10B5F024120424032240002B1D
:1028400005D0012B02D18C230A43C25010BD88232E
:102850000A43C250FAE7C0461749184A10B59142D8
:1028600003D01748521A00F0C1FB1649164A91428C
:1028700003D01648521A00F0B9FB1548154A904289
:1028800003D00021121A00F029FA1349134A914289
:1028900003D01348521A00F0A9FB124C12498C4283
:1028A00006D0124A920803D02000920000F09EFB4E
:1028B0000F4B1C6010BDC04604350000603A00009C
:1028C000C0000020603A0000603A000028060020A6
:1028D000C030002030310020603A0000603A000033
:1028E00000FCFF1F0000002000000000C0000000EE
:1028F00008ED00E0044B054A5A605A68044A1A6021
:10290000044A9A607047C0460020054020C528D977
:1029100020210000FFFF0000104A10B51169136963
:102920001B011B0F022B04D0032B10D0012B05D051
:1029300010BD82239B00D358DB07F9D50848090353
:10294000090F013100F022F8064B1860F0E7C220B1
:10295000800012581342EBD10348F0E700400640D4
:1029600000127A00E8010020006CDC0204480549EE
:10297000054A43581B041B0C134343507047C04681
:1029800000E000E00C0D00000400FA0500224308FE
:102990008B4274D303098B425FD3030A8B4244D327
:1029A000030B8B4228D3030C8B420DD3FF22090269
:1029B00012BA030C8B4202D31212090265D0030B28
:1029C0008B4219D300E0090AC30B8B4201D3CB031E
:1029D000C01A5241830B8B4201D38B03C01A524160
:1029E000430B8B4201D34B03C01A5241030B8B4262
:1029F00001D30B03C01A5241C30A8B4201D3CB024D
:102A0000C01A5241830A8B4201D38B02C01A524131
:102A1000430A8B4201D34B02C01A5241030A8B4234
:102A200001D30B02C01A5241CDD2C3098B4201D34C
:102A3000CB01C01A524183098B4201D38B01C01ACA
:102A4000524143098B4201D34B01C01A5241030941
:102A50008B4201D30B01C01A5241C3088B4201D3F0
:102A6000CB00C01A524183088B4201D38B00C01A9D
:102A7000524143088B4201D34B00C01A5241411AC4
:102A800000D20146524110467047FFE701B50020D1
:102A900000F0F0F802BDC0460029F7D076E7704795
:102AA00003460B437FD4002243088B4274D30309AF
:102AB0008B425FD3030A8B4244D3030B8B4228D350
:102AC000030C8B420DD3FF22090212BA030C8B4276
:102AD00002D31212090265D0030B8B4219D300E016
:102AE000090AC30B8B4201D3CB03C01A5241830B9B
:102AF0008B4201D38B03C01A5241430B8B4201D34B
:102B00004B03C01A5241030B8B4201D30B03C01A73
:102B10005241C30A8B4201D3CB02C01A5241830AED
:102B20008B4201D38B02C01A5241430A8B4201D31C
:102B30004B02C01A5241030A8B4201D30B02C01A46
:102B40005241CDD2C3098B4201D3CB01C01A5241AD
:102B500083098B4201D38B01C01A524143098B4236
:102B600001D34B01C01A524103098B4201D30B011F
:102B7000C01A5241C3088B4201D3CB00C01A524144
:102B800083088B4201D38B00C01A524143088B4209
:102B900001D34B00C01A5241411A00D201465241A2
:102BA000104670475DE0CA0F00D04942031000D3C1
:102BB0004042534000229C4603098B422DD3030A16
:102BC0008B4212D3FC22890112BA030A8B420CD326
:102BD000890192118B4208D3890192118B4204D34F
:102BE00089013AD0921100E08909C3098B4201D3CF
:102BF000CB01C01A524183098B4201D38B01C01A09
:102C0000524143098B4201D34B01C01A524103097F
:102C10008B4201D30B01C01A5241C3088B4201D32E
:102C2000CB00C01A524183088B4201D38B00C01ADB
:102C30005241D9D243088B4201D34B00C01A5241B2
:102C4000411A00D20146634652415B10104601D33F
:102C50004042002B00D54942704763465B1000D3C9
:102C6000404201B5002000F005F802BD0029F8D06F
:102C700016E770477047C04610B50021040000F009
:102C80008DF8044B1868C36B002B00D098472000C8
:102C900000F086F9DC34000070B50C4D0C4E761B4C
:102CA000B61005D0002408CD01349847A642FAD1C9
:102CB00000F016FC074D084E761BB61005D0002418
:102CC00008CD01349847A642FAD170BD000000003B
:102CD000000000000000000000000000F0B505004A
:102CE000830749D0541E002A45D003000326CAB2E8
:102CF00002E00135013C3ED301332A703342F8D162
:102D0000032C30D9FF220A40150215432A0415432B
:102D10000F2C34D92700103F3F093E01B4461E0056
:102D20001A0010366644156055609560D560103203
:102D3000B242F8D101373F01DB190F270C2227409F
:102D400022403C00002A0ED03E1FB608B400A44624
:102D50001A001C1D644420C2A242FCD10324013687
:102D6000B6009B193C40002C05D0C9B21C19197043
:102D700001339C42FBD1F0BD03001400C0E72700E3
:102D8000E2E7C046034B10B5002B02D0024800F02A
:102D900081F810BD00000000A52E0000F0B54E46E1
:102DA000DE4657464546E0B5384B83B01B68019078
:102DB00018000093894600F093F8A422344B520087
:102DC0001B689E580093002E3CD075686C1E39D449
:102DD0000135AD002B0080339846C4235B009B4631
:102DE00077190135FF35B0447519B34407E0042362
:102DF0005B429C46043FE044ED18013C22D34B4625
:102E0000002B02D02B684B45F1D173683A68013B27
:102E1000A34234D000233B60002AE8D073685946AF
:102E20009A460123A3400968194216D19047736856
:102E300053451FD1A422009B52009B58B342D6D0C9
:102E40001E1EC2D1114B186800F052F803B0F0BC3E
:102E5000BB46B246A946A046F0BD31008D31FF31D8
:102E6000096819420DD14346019819689047736863
:102E70005345DFD0A422009B52009E58A3E7746004
:102E8000CAE7434618689047D1E7C04618060020B5
:102E9000DC34000010B5010000230022002000F007
:102EA00029F810BD70B5074D074C641BA41005D060
:102EB000013CA300EB589847002CF9D100F016FB19
:102EC00070BDC04600000000000000007047C04612
:102ED0007047C0467047C0467047C0467047C046FE
:102EE0007047C04601207047012070477047C046B8
:102EF0007047C046F0B5D6464F464646C0B5264F49
:102F000082B006003868924698468946FFF7E8FF87
:102F1000224B1B680193A423019A5B00D558002D16
:102F20002ED06C681F2C30DC002E0FD1631C6B6020
:102F30004B460234A40038686351FFF7D9FF0020E4
:102F400002B0E0BCBA46B146A846F0BD8822514660
:102F50002800A300EB189950873AA2408930FF302F
:102F60000168114301608421404649005850022EF7
:102F7000DCD12B008D33FF3319680A431A60D5E783
:102F800015004D35FF35D550CBE73868FFF7B0FF5A
:102F900001204042D4E7C04618060020DC3400007F
:102FA000FEE7C04610B50D48FEF730F90C49012088
:102FB000FFF716FB80210B484900FFF78FFB8021AC
:102FC00008484900FFF7A2FB074B013B002BFCD14F
:102FD000802104484900FFF79DFBF5E7C800002069
:102FE000D001002000F10F4081FC0A00F0B5C64678
:102FF00000B50F2A41D903270D003E0005430C0000
:1030000003002E402F423DD11500103D2D09A8464A
:103010002D01AC46844427681D001F6067685F600F
:10302000A7689F60E7681034DF6010336545F2D110
:1030300045460F230C2401352D014919134045192C
:10304000144222D08C59AC5104369C1B032CF9D865
:10305000043B9B0801339B00ED18C91803231A4059
:10306000561E002A06D00023CC5C1A00EC54013313
:103070009642F9D180BCB846F0BD0500561E002A24
:10308000F1D1F7E70500561EEDE71A00F6E7C04656
:103090003B3E0B3E103E253E333E033E063E143E75
:1030A0000E3E0D3E243E123E273E023E183E093E95
:1030B0000A3E0000FE100000E610000004110000AF
:1030C000E610000032110000E61000005C11000064
:1030D00096110000E61000008E110000C2110000E1
:1030E000E61000009E110000E6100000F81000003D
:1030F000661900007E19000044170000001A000045
:103100003C1900004C190000081A00008E1900003C
:10311000A0190000E0190000F01900001C190000BF
:103120002C19000088180000921800009C1800005C
:1031300044170000A6180000D4180000F61800007C
:103140002A1A000014190000F4170000FC170000F0
:103150003A180000661800008E170000C41700001F
:103160005C1700004E1B00003E1B00002E1B0000E1
:103170001A1B00005E1B00002E1F0000BC21000077
:10318000B82100002E1F0000B42100002E1F0000F7
:103190002E1F00002E1F0000EE2100002E1F000039
:1031A0002E1F00002E1F00002E1F00002E1F0000EB
:1031B0002E1F00002E1F0000F22100002E1F000015
:1031C0002E1F00002E1F00002E1F00002E1F0000CB
:1031D0002E1F00002E1F00002E1F00002E1F0000BB
:1031E0002E1F00002E1F00002E1F00002E1F0000AB
:1031F0002E1F00002E1F0000B0210000461F0000FF
:10320000CC210000C8210000461F0000C42100009E
:10321000461F0000461F0000461F0000C02100009E
:10322000461F0000461F0000461F0000461F00000A
:10323000461F0000461F0000461F0000F621000048
:10324000461F0000461F0000461F0000461F0000EA
:10325000461F0000461F0000461F0000461F0000DA
:10326000461F0000461F0000461F0000461F0000CA
:10327000461F0000461F0000461F0000FA21000004
:10328000AA210000102200000A220000AA2100004A
:1032900004220000AA210000AA210000AA210000A7
:1032A000FE210000AA210000AA210000AA2100009E
:1032B000AA210000AA210000AA210000AA210000E2
:1032C00016220000AA210000AA210000AA21000065
:1032D000AA210000AA210000AA210000AA210000C2
:1032E000AA210000AA210000AA210000AA210000B2
:1032F000AA210000AA210000AA210000AA210000A2
:103300001C2200000000000000000000000000007F
:1033100000B4C404006CDC02B0F3960100B4C40431
:10332000006CDC02B0F3960100B4C404006CDC0253
:10333000B0F3960100000000000000000000000053
:1033400000000000000000000000000000B4C40401
:10335000005A6202B0F39601000000000000000075
:103360000000000000093D0000093D0040420F0040
:1033700000093D0000093D0040420F0000093D00EA
:1033800000093D0040420F00000000000000000066
:10339000000000000000000000000000000000002D
:1033A00000093D0000093D0040420F000000000000
:1033B000000000000000000000000000000000000D
:1033C00000000000000000000041414141410000B8
:1033D000000000000020202020202020202000408D
:1033E00040008000484800303030303030363030D7
:1033F00000000000020000000300000001000000C7
:103400000102040302030100000001020304050697
:103410000708090A0B0C0D0E0F0000000001020343
:103420000405060708090A0B0C0D0E0F000000002A
:10343000000000000000000000000000000000008C
:10344000000000000000000000000000000000007C
:10345000000000000000000000000000000000006C
:10346000000000000000000000000000000000005C
:1034700000000000000000000000000000007300D9
:103480003200210049004A004B004C004D003D0035
:103490000000240036000000200000003800390041
:1034A00000003B005A00660037002C002D00400051
:1034B0006A006B00000000003B3E0B3E103E253EC4
:1034C000333E033E063E143E0E3E0D3E243E123E6B
:1034D000273E023E183E093E0A3E0000F001002051
:1034E000F8B5C046F8BC08BC9E467047F8B5C04663
:0C34F000F8BC08BC9E46704700000000BD
:0834FC005CCFFF7F010000001E
:1035040000000000C80000200101010100010000CA
:1035140001010000010001000024F4000001000387
:103524000101000000010000000000000000000094
:103534000000000000000000010000000301010180
:10354400000303000102000000000001010000006C
:103554000100000101000000010000000000000063
:10356400000000000000000001010101010101014F
:1035740000000000050000004001002001010000DF
:103584002C010000002D010000002E010000002F7E
:103594000100000030010000000000003B010200B7
:1035A4000029010000002A010000002B0100000096
:1035B40033010000003C0102000036010000003825
:1035C4000102000039010200003D010200003E0139
:1035D4000200003F0102000040010200004101021C
:1035E4000000420102000043010200003401000017
:1035F400002C010000002D010000002E010000003D
:103604002F01000000300100000031010000000023
:1036140000D0044008000000000000010000000089
:1036240000F10F4001000000006CDC02F0010020FA
:1036340000000000DC04002044050020AC0500204C
:103644000000000000000000000000000000000076
:103654000000000000000000000000000000000066
:103664000000000000000000000000000000000056
:103674000000000000000000000000000000000046
:103684000000000000000000000000000000000036
:103694000000000000000000000000000000000026
:1036A4000000000000000000000000000000000016
:1036B4000000000000000000000000000000000006
:1036C40000000000000000000000000000000000F6
:1036D40000000000000000000100000000000000E5
:1036E4000E33CDAB34126DE6ECDE05000B000000AA
:1036F40000000000000000000000000000000000C6
:1037040000000000000000000000000000000000B5
:1037140000000000000000000000000000000000A5
:103724000000000000000000000000000000000095
:0C3A540000000000000000001431002001
:043A60003904000025
:043A64001104000049
:043A6800852D0000A8
:04000003000004D91C
:00000001FF
